{
  "_format": "hh-sol-artifact-1",
  "contractName": "NFTMarketplace",
  "sourceName": "contracts/NFTMarketplace.sol",
  "abi": [
    {
      "inputs": [],
      "stateMutability": "nonpayable",
      "type": "constructor"
    },
    {
      "anonymous": false,
      "inputs": [
        {
          "indexed": true,
          "internalType": "address",
          "name": "account",
          "type": "address"
        },
        {
          "indexed": true,
          "internalType": "address",
          "name": "operator",
          "type": "address"
        },
        {
          "indexed": false,
          "internalType": "bool",
          "name": "approved",
          "type": "bool"
        }
      ],
      "name": "ApprovalForAll",
      "type": "event"
    },
    {
      "anonymous": false,
      "inputs": [
        {
          "indexed": true,
          "internalType": "uint256",
          "name": "id",
          "type": "uint256"
        },
        {
          "indexed": true,
          "internalType": "uint256",
          "name": "tokenId",
          "type": "uint256"
        },
        {
          "indexed": false,
          "internalType": "address",
          "name": "seller",
          "type": "address"
        },
        {
          "indexed": false,
          "internalType": "address",
          "name": "owner",
          "type": "address"
        },
        {
          "indexed": false,
          "internalType": "uint256",
          "name": "price",
          "type": "uint256"
        },
        {
          "indexed": false,
          "internalType": "bool",
          "name": "sold",
          "type": "bool"
        },
        {
          "indexed": false,
          "internalType": "uint256",
          "name": "amount",
          "type": "uint256"
        }
      ],
      "name": "MarketItemCreated",
      "type": "event"
    },
    {
      "anonymous": false,
      "inputs": [
        {
          "indexed": true,
          "internalType": "address",
          "name": "operator",
          "type": "address"
        },
        {
          "indexed": true,
          "internalType": "address",
          "name": "from",
          "type": "address"
        },
        {
          "indexed": true,
          "internalType": "address",
          "name": "to",
          "type": "address"
        },
        {
          "indexed": false,
          "internalType": "uint256[]",
          "name": "ids",
          "type": "uint256[]"
        },
        {
          "indexed": false,
          "internalType": "uint256[]",
          "name": "values",
          "type": "uint256[]"
        }
      ],
      "name": "TransferBatch",
      "type": "event"
    },
    {
      "anonymous": false,
      "inputs": [
        {
          "indexed": true,
          "internalType": "address",
          "name": "operator",
          "type": "address"
        },
        {
          "indexed": true,
          "internalType": "address",
          "name": "from",
          "type": "address"
        },
        {
          "indexed": true,
          "internalType": "address",
          "name": "to",
          "type": "address"
        },
        {
          "indexed": false,
          "internalType": "uint256",
          "name": "id",
          "type": "uint256"
        },
        {
          "indexed": false,
          "internalType": "uint256",
          "name": "value",
          "type": "uint256"
        }
      ],
      "name": "TransferSingle",
      "type": "event"
    },
    {
      "anonymous": false,
      "inputs": [
        {
          "indexed": false,
          "internalType": "string",
          "name": "value",
          "type": "string"
        },
        {
          "indexed": true,
          "internalType": "uint256",
          "name": "id",
          "type": "uint256"
        }
      ],
      "name": "URI",
      "type": "event"
    },
    {
      "inputs": [
        {
          "internalType": "address",
          "name": "account",
          "type": "address"
        },
        {
          "internalType": "uint256",
          "name": "id",
          "type": "uint256"
        }
      ],
      "name": "balanceOf",
      "outputs": [
        {
          "internalType": "uint256",
          "name": "",
          "type": "uint256"
        }
      ],
      "stateMutability": "view",
      "type": "function"
    },
    {
      "inputs": [
        {
          "internalType": "address[]",
          "name": "accounts",
          "type": "address[]"
        },
        {
          "internalType": "uint256[]",
          "name": "ids",
          "type": "uint256[]"
        }
      ],
      "name": "balanceOfBatch",
      "outputs": [
        {
          "internalType": "uint256[]",
          "name": "",
          "type": "uint256[]"
        }
      ],
      "stateMutability": "view",
      "type": "function"
    },
    {
      "inputs": [
        {
          "internalType": "uint256",
          "name": "id",
          "type": "uint256"
        },
        {
          "internalType": "uint256",
          "name": "amount",
          "type": "uint256"
        }
      ],
      "name": "createMarketSale",
      "outputs": [],
      "stateMutability": "payable",
      "type": "function"
    },
    {
      "inputs": [
        {
          "internalType": "string",
          "name": "uri",
          "type": "string"
        },
        {
          "internalType": "uint256",
          "name": "price",
          "type": "uint256"
        },
        {
          "internalType": "uint256",
          "name": "amount",
          "type": "uint256"
        }
      ],
      "name": "createToken",
      "outputs": [
        {
          "internalType": "uint256",
          "name": "",
          "type": "uint256"
        }
      ],
      "stateMutability": "payable",
      "type": "function"
    },
    {
      "inputs": [
        {
          "internalType": "address",
          "name": "account",
          "type": "address"
        },
        {
          "internalType": "address",
          "name": "operator",
          "type": "address"
        }
      ],
      "name": "isApprovedForAll",
      "outputs": [
        {
          "internalType": "bool",
          "name": "",
          "type": "bool"
        }
      ],
      "stateMutability": "view",
      "type": "function"
    },
    {
      "inputs": [
        {
          "internalType": "uint256",
          "name": "id",
          "type": "uint256"
        },
        {
          "internalType": "uint256",
          "name": "price",
          "type": "uint256"
        },
        {
          "internalType": "uint256",
          "name": "amount",
          "type": "uint256"
        }
      ],
      "name": "resellToken",
      "outputs": [],
      "stateMutability": "payable",
      "type": "function"
    },
    {
      "inputs": [
        {
          "internalType": "address",
          "name": "from",
          "type": "address"
        },
        {
          "internalType": "address",
          "name": "to",
          "type": "address"
        },
        {
          "internalType": "uint256[]",
          "name": "ids",
          "type": "uint256[]"
        },
        {
          "internalType": "uint256[]",
          "name": "amounts",
          "type": "uint256[]"
        },
        {
          "internalType": "bytes",
          "name": "data",
          "type": "bytes"
        }
      ],
      "name": "safeBatchTransferFrom",
      "outputs": [],
      "stateMutability": "nonpayable",
      "type": "function"
    },
    {
      "inputs": [
        {
          "internalType": "address",
          "name": "from",
          "type": "address"
        },
        {
          "internalType": "address",
          "name": "to",
          "type": "address"
        },
        {
          "internalType": "uint256",
          "name": "id",
          "type": "uint256"
        },
        {
          "internalType": "uint256",
          "name": "amount",
          "type": "uint256"
        },
        {
          "internalType": "bytes",
          "name": "data",
          "type": "bytes"
        }
      ],
      "name": "safeTransferFrom",
      "outputs": [],
      "stateMutability": "nonpayable",
      "type": "function"
    },
    {
      "inputs": [
        {
          "internalType": "address",
          "name": "operator",
          "type": "address"
        },
        {
          "internalType": "bool",
          "name": "approved",
          "type": "bool"
        }
      ],
      "name": "setApprovalForAll",
      "outputs": [],
      "stateMutability": "nonpayable",
      "type": "function"
    },
    {
      "inputs": [
        {
          "internalType": "bytes4",
          "name": "interfaceId",
          "type": "bytes4"
        }
      ],
      "name": "supportsInterface",
      "outputs": [
        {
          "internalType": "bool",
          "name": "",
          "type": "bool"
        }
      ],
      "stateMutability": "view",
      "type": "function"
    },
    {
      "inputs": [
        {
          "internalType": "uint256",
          "name": "",
          "type": "uint256"
        }
      ],
      "name": "uri",
      "outputs": [
        {
          "internalType": "string",
          "name": "",
          "type": "string"
        }
      ],
      "stateMutability": "view",
      "type": "function"
    }
  ],
  "bytecode": "0x608060405264e8d4a510006005553480156200001a57600080fd5b5060405180606001604052806026815260200162003b006026913962000046816200008e60201b60201c565b5033600660006101000a81548173ffffffffffffffffffffffffffffffffffffffff021916908373ffffffffffffffffffffffffffffffffffffffff16021790555062000404565b80600290816200009f91906200031d565b5050565b600081519050919050565b7f4e487b7100000000000000000000000000000000000000000000000000000000600052604160045260246000fd5b7f4e487b7100000000000000000000000000000000000000000000000000000000600052602260045260246000fd5b600060028204905060018216806200012557607f821691505b6020821081036200013b576200013a620000dd565b5b50919050565b60008190508160005260206000209050919050565b60006020601f8301049050919050565b600082821b905092915050565b600060088302620001a57fffffffffffffffffffffffffffffffffffffffffffffffffffffffffffffffff8262000166565b620001b1868362000166565b95508019841693508086168417925050509392505050565b6000819050919050565b6000819050919050565b6000620001fe620001f8620001f284620001c9565b620001d3565b620001c9565b9050919050565b6000819050919050565b6200021a83620001dd565b62000232620002298262000205565b84845462000173565b825550505050565b600090565b620002496200023a565b620002568184846200020f565b505050565b5b818110156200027e57620002726000826200023f565b6001810190506200025c565b5050565b601f821115620002cd57620002978162000141565b620002a28462000156565b81016020851015620002b2578190505b620002ca620002c18562000156565b8301826200025b565b50505b505050565b600082821c905092915050565b6000620002f260001984600802620002d2565b1980831691505092915050565b60006200030d8383620002df565b9150826002028217905092915050565b6200032882620000a3565b67ffffffffffffffff811115620003445762000343620000ae565b5b6200035082546200010c565b6200035d82828562000282565b600060209050601f83116001811462000395576000841562000380578287015190505b6200038c8582620002ff565b865550620003fc565b601f198416620003a58662000141565b60005b82811015620003cf57848901518255600182019150602085019450602081019050620003a8565b86831015620003ef5784890151620003eb601f891682620002df565b8355505b6001600288020188555050505b505050505050565b6136ec80620004146000396000f3fe60806040526004361061009b5760003560e01c8063a1c11ca811610064578063a1c11ca8146101bd578063a22cb465146101d9578063bec2a7c514610202578063e985e9c514610232578063ea31247a1461026f578063f242432a1461028b5761009b565b8062fdd58e146100a057806301ffc9a7146100dd5780630e89341c1461011a5780632eb2c2d6146101575780634e1273f414610180575b600080fd5b3480156100ac57600080fd5b506100c760048036038101906100c29190611df1565b6102b4565b6040516100d49190611e40565b60405180910390f35b3480156100e957600080fd5b5061010460048036038101906100ff9190611eb3565b61037c565b6040516101119190611efb565b60405180910390f35b34801561012657600080fd5b50610141600480360381019061013c9190611f16565b61045e565b60405161014e9190611fd3565b60405180910390f35b34801561016357600080fd5b5061017e600480360381019061017991906121f2565b6104f2565b005b34801561018c57600080fd5b506101a760048036038101906101a29190612384565b610593565b6040516101b491906124ba565b60405180910390f35b6101d760048036038101906101d291906124dc565b6106ac565b005b3480156101e557600080fd5b5061020060048036038101906101fb9190612548565b61090c565b005b61021c60048036038101906102179190612629565b610922565b6040516102299190611e40565b60405180910390f35b34801561023e57600080fd5b5061025960048036038101906102549190612698565b610976565b6040516102669190611efb565b60405180910390f35b610289600480360381019061028491906126d8565b610a0a565b005b34801561029757600080fd5b506102b260048036038101906102ad919061272b565b610c42565b005b60008073ffffffffffffffffffffffffffffffffffffffff168373ffffffffffffffffffffffffffffffffffffffff1603610324576040517f08c379a000000000000000000000000000000000000000000000000000000000815260040161031b90612834565b60405180910390fd5b60008083815260200190815260200160002060008473ffffffffffffffffffffffffffffffffffffffff1673ffffffffffffffffffffffffffffffffffffffff16815260200190815260200160002054905092915050565b60007fd9b67a26000000000000000000000000000000000000000000000000000000007bffffffffffffffffffffffffffffffffffffffffffffffffffffffff1916827bffffffffffffffffffffffffffffffffffffffffffffffffffffffff1916148061044757507f0e89341c000000000000000000000000000000000000000000000000000000007bffffffffffffffffffffffffffffffffffffffffffffffffffffffff1916827bffffffffffffffffffffffffffffffffffffffffffffffffffffffff1916145b80610457575061045682610ce3565b5b9050919050565b60606002805461046d90612883565b80601f016020809104026020016040519081016040528092919081815260200182805461049990612883565b80156104e65780601f106104bb576101008083540402835291602001916104e6565b820191906000526020600020905b8154815290600101906020018083116104c957829003601f168201915b50505050509050919050565b6104fa610d4d565b73ffffffffffffffffffffffffffffffffffffffff168573ffffffffffffffffffffffffffffffffffffffff161480610540575061053f8561053a610d4d565b610976565b5b61057f576040517f08c379a000000000000000000000000000000000000000000000000000000000815260040161057690612926565b60405180910390fd5b61058c8585858585610d55565b5050505050565b606081518351146105d9576040517f08c379a00000000000000000000000000000000000000000000000000000000081526004016105d0906129b8565b60405180910390fd5b6000835167ffffffffffffffff8111156105f6576105f5611ffa565b5b6040519080825280602002602001820160405280156106245781602001602082028036833780820191505090505b50905060005b84518110156106a157610671858281518110610649576106486129d8565b5b6020026020010151858381518110610664576106636129d8565b5b60200260200101516102b4565b828281518110610684576106836129d8565b5b6020026020010181815250508061069a90612a36565b905061062a565b508091505092915050565b600060076000848152602001908152602001600020600401549050803414610709576040517f08c379a000000000000000000000000000000000000000000000000000000000815260040161070090612aca565b60405180910390fd5b336007600085815260200190815260200160002060030160006101000a81548173ffffffffffffffffffffffffffffffffffffffff021916908373ffffffffffffffffffffffffffffffffffffffff16021790555060016007600085815260200190815260200160002060050160006101000a81548160ff0219169083151502179055506107976004611076565b6107c930336007600087815260200190815260200160002060010154856040518060200160405280600081525061108c565b600660009054906101000a900473ffffffffffffffffffffffffffffffffffffffff1673ffffffffffffffffffffffffffffffffffffffff166108fc6005549081150290604051600060405180830381858888f19350505050158015610833573d6000803e3d6000fd5b506007600084815260200190815260200160002060020160009054906101000a900473ffffffffffffffffffffffffffffffffffffffff1673ffffffffffffffffffffffffffffffffffffffff166108fc349081150290604051600060405180830381858888f193505050501580156108b0573d6000803e3d6000fd5b5060006007600085815260200190815260200160002060020160006101000a81548173ffffffffffffffffffffffffffffffffffffffff021916908373ffffffffffffffffffffffffffffffffffffffff160217905550505050565b61091e610917610d4d565b8383611327565b5050565b600061092e6003611076565b600061093a6003611493565b9050610957338285604051806020016040528060008152506114a1565b61096085611651565b61096b818585611664565b809150509392505050565b6000600160008473ffffffffffffffffffffffffffffffffffffffff1673ffffffffffffffffffffffffffffffffffffffff16815260200190815260200160002060008373ffffffffffffffffffffffffffffffffffffffff1673ffffffffffffffffffffffffffffffffffffffff16815260200190815260200160002060009054906101000a900460ff16905092915050565b3373ffffffffffffffffffffffffffffffffffffffff166007600085815260200190815260200160002060030160009054906101000a900473ffffffffffffffffffffffffffffffffffffffff1673ffffffffffffffffffffffffffffffffffffffff1614610aae576040517f08c379a0000000000000000000000000000000000000000000000000000000008152600401610aa590612b36565b60405180910390fd5b6005543414610af2576040517f08c379a0000000000000000000000000000000000000000000000000000000008152600401610ae990612ba2565b60405180910390fd5b60006007600085815260200190815260200160002060050160006101000a81548160ff021916908315150217905550816007600085815260200190815260200160002060040181905550806007600085815260200190815260200160002060060181905550336007600085815260200190815260200160002060020160006101000a81548173ffffffffffffffffffffffffffffffffffffffff021916908373ffffffffffffffffffffffffffffffffffffffff160217905550306007600085815260200190815260200160002060030160006101000a81548173ffffffffffffffffffffffffffffffffffffffff021916908373ffffffffffffffffffffffffffffffffffffffff160217905550610c0b6004611892565b610c3d33306007600087815260200190815260200160002060010154846040518060200160405280600081525061108c565b505050565b610c4a610d4d565b73ffffffffffffffffffffffffffffffffffffffff168573ffffffffffffffffffffffffffffffffffffffff161480610c905750610c8f85610c8a610d4d565b610976565b5b610ccf576040517f08c379a0000000000000000000000000000000000000000000000000000000008152600401610cc690612926565b60405180910390fd5b610cdc858585858561108c565b5050505050565b60007f01ffc9a7000000000000000000000000000000000000000000000000000000007bffffffffffffffffffffffffffffffffffffffffffffffffffffffff1916827bffffffffffffffffffffffffffffffffffffffffffffffffffffffff1916149050919050565b600033905090565b8151835114610d99576040517f08c379a0000000000000000000000000000000000000000000000000000000008152600401610d9090612c34565b60405180910390fd5b600073ffffffffffffffffffffffffffffffffffffffff168473ffffffffffffffffffffffffffffffffffffffff1603610e08576040517f08c379a0000000000000000000000000000000000000000000000000000000008152600401610dff90612cc6565b60405180910390fd5b6000610e12610d4d565b9050610e228187878787876118ee565b60005b8451811015610fd3576000858281518110610e4357610e426129d8565b5b602002602001015190506000858381518110610e6257610e616129d8565b5b60200260200101519050600080600084815260200190815260200160002060008b73ffffffffffffffffffffffffffffffffffffffff1673ffffffffffffffffffffffffffffffffffffffff16815260200190815260200160002054905081811015610f03576040517f08c379a0000000000000000000000000000000000000000000000000000000008152600401610efa90612d58565b60405180910390fd5b81810360008085815260200190815260200160002060008c73ffffffffffffffffffffffffffffffffffffffff1673ffffffffffffffffffffffffffffffffffffffff168152602001908152602001600020819055508160008085815260200190815260200160002060008b73ffffffffffffffffffffffffffffffffffffffff1673ffffffffffffffffffffffffffffffffffffffff1681526020019081526020016000206000828254610fb89190612d78565b9250508190555050505080610fcc90612a36565b9050610e25565b508473ffffffffffffffffffffffffffffffffffffffff168673ffffffffffffffffffffffffffffffffffffffff168273ffffffffffffffffffffffffffffffffffffffff167f4a39dc06d4c0dbc64b70af90fd698a233a518aa5d07e595d983b8c0526c8f7fb878760405161104a929190612dac565b60405180910390a46110608187878787876118f6565b61106e8187878787876118fe565b505050505050565b6001816000016000828254019250508190555050565b600073ffffffffffffffffffffffffffffffffffffffff168473ffffffffffffffffffffffffffffffffffffffff16036110fb576040517f08c379a00000000000000000000000000000000000000000000000000000000081526004016110f290612cc6565b60405180910390fd5b6000611105610d4d565b9050600061111285611ad5565b9050600061111f85611ad5565b905061112f8389898585896118ee565b600080600088815260200190815260200160002060008a73ffffffffffffffffffffffffffffffffffffffff1673ffffffffffffffffffffffffffffffffffffffff168152602001908152602001600020549050858110156111c6576040517f08c379a00000000000000000000000000000000000000000000000000000000081526004016111bd90612d58565b60405180910390fd5b85810360008089815260200190815260200160002060008b73ffffffffffffffffffffffffffffffffffffffff1673ffffffffffffffffffffffffffffffffffffffff168152602001908152602001600020819055508560008089815260200190815260200160002060008a73ffffffffffffffffffffffffffffffffffffffff1673ffffffffffffffffffffffffffffffffffffffff168152602001908152602001600020600082825461127b9190612d78565b925050819055508773ffffffffffffffffffffffffffffffffffffffff168973ffffffffffffffffffffffffffffffffffffffff168573ffffffffffffffffffffffffffffffffffffffff167fc3d58168c5ae7397731d063d5bbf3d657854427343f4c083240f7aacaa2d0f628a8a6040516112f8929190612de3565b60405180910390a461130e848a8a86868a6118f6565b61131c848a8a8a8a8a611b4f565b505050505050505050565b8173ffffffffffffffffffffffffffffffffffffffff168373ffffffffffffffffffffffffffffffffffffffff1603611395576040517f08c379a000000000000000000000000000000000000000000000000000000000815260040161138c90612e7e565b60405180910390fd5b80600160008573ffffffffffffffffffffffffffffffffffffffff1673ffffffffffffffffffffffffffffffffffffffff16815260200190815260200160002060008473ffffffffffffffffffffffffffffffffffffffff1673ffffffffffffffffffffffffffffffffffffffff16815260200190815260200160002060006101000a81548160ff0219169083151502179055508173ffffffffffffffffffffffffffffffffffffffff168373ffffffffffffffffffffffffffffffffffffffff167f17307eab39ab6107e8899845ad3d59bd9653f200f220920489ca2b5937696c31836040516114869190611efb565b60405180910390a3505050565b600081600001549050919050565b600073ffffffffffffffffffffffffffffffffffffffff168473ffffffffffffffffffffffffffffffffffffffff1603611510576040517f08c379a000000000000000000000000000000000000000000000000000000000815260040161150790612f10565b60405180910390fd5b600061151a610d4d565b9050600061152785611ad5565b9050600061153485611ad5565b9050611545836000898585896118ee565b8460008088815260200190815260200160002060008973ffffffffffffffffffffffffffffffffffffffff1673ffffffffffffffffffffffffffffffffffffffff16815260200190815260200160002060008282546115a49190612d78565b925050819055508673ffffffffffffffffffffffffffffffffffffffff16600073ffffffffffffffffffffffffffffffffffffffff168473ffffffffffffffffffffffffffffffffffffffff167fc3d58168c5ae7397731d063d5bbf3d657854427343f4c083240f7aacaa2d0f628989604051611622929190612de3565b60405180910390a4611639836000898585896118f6565b61164883600089898989611b4f565b50505050505050565b806002908161166091906130dc565b5050565b600082116116a7576040517f08c379a000000000000000000000000000000000000000000000000000000000815260040161169e906131fa565b60405180910390fd5b60055434146116eb576040517f08c379a00000000000000000000000000000000000000000000000000000000081526004016116e29061328c565b60405180910390fd5b6040518060e001604052806117006003611493565b81526020018481526020013373ffffffffffffffffffffffffffffffffffffffff1681526020013073ffffffffffffffffffffffffffffffffffffffff1681526020018381526020016000151581526020018281525060076000858152602001908152602001600020600082015181600001556020820151816001015560408201518160020160006101000a81548173ffffffffffffffffffffffffffffffffffffffff021916908373ffffffffffffffffffffffffffffffffffffffff16021790555060608201518160030160006101000a81548173ffffffffffffffffffffffffffffffffffffffff021916908373ffffffffffffffffffffffffffffffffffffffff1602179055506080820151816004015560a08201518160050160006101000a81548160ff02191690831515021790555060c082015181600601559050508261184d6003611493565b7f8bd19371d86b6c988a65dc89dfff9994ca5fc5ecd440c4e7f4c52820d370828e3330866000876040516118859594939291906132bb565b60405180910390a3505050565b600081600001549050600081116118de576040517f08c379a00000000000000000000000000000000000000000000000000000000081526004016118d59061335a565b60405180910390fd5b6001810382600001819055505050565b505050505050565b505050505050565b61191d8473ffffffffffffffffffffffffffffffffffffffff16611d26565b15611acd578373ffffffffffffffffffffffffffffffffffffffff1663bc197c8187878686866040518663ffffffff1660e01b81526004016119639594939291906133cf565b6020604051808303816000875af192505050801561199f57506040513d601f19601f8201168201806040525081019061199c919061344c565b60015b611a44576119ab613486565b806308c379a003611a0757506119bf6134a8565b806119ca5750611a09565b806040517f08c379a00000000000000000000000000000000000000000000000000000000081526004016119fe9190611fd3565b60405180910390fd5b505b6040517f08c379a0000000000000000000000000000000000000000000000000000000008152600401611a3b906135aa565b60405180910390fd5b63bc197c8160e01b7bffffffffffffffffffffffffffffffffffffffffffffffffffffffff1916817bffffffffffffffffffffffffffffffffffffffffffffffffffffffff191614611acb576040517f08c379a0000000000000000000000000000000000000000000000000000000008152600401611ac29061363c565b60405180910390fd5b505b505050505050565b60606000600167ffffffffffffffff811115611af457611af3611ffa565b5b604051908082528060200260200182016040528015611b225781602001602082028036833780820191505090505b5090508281600081518110611b3a57611b396129d8565b5b60200260200101818152505080915050919050565b611b6e8473ffffffffffffffffffffffffffffffffffffffff16611d26565b15611d1e578373ffffffffffffffffffffffffffffffffffffffff1663f23a6e6187878686866040518663ffffffff1660e01b8152600401611bb495949392919061365c565b6020604051808303816000875af1925050508015611bf057506040513d601f19601f82011682018060405250810190611bed919061344c565b60015b611c9557611bfc613486565b806308c379a003611c585750611c106134a8565b80611c1b5750611c5a565b806040517f08c379a0000000000000000000000000000000000000000000000000000000008152600401611c4f9190611fd3565b60405180910390fd5b505b6040517f08c379a0000000000000000000000000000000000000000000000000000000008152600401611c8c906135aa565b60405180910390fd5b63f23a6e6160e01b7bffffffffffffffffffffffffffffffffffffffffffffffffffffffff1916817bffffffffffffffffffffffffffffffffffffffffffffffffffffffff191614611d1c576040517f08c379a0000000000000000000000000000000000000000000000000000000008152600401611d139061363c565b60405180910390fd5b505b505050505050565b6000808273ffffffffffffffffffffffffffffffffffffffff163b119050919050565b6000604051905090565b600080fd5b600080fd5b600073ffffffffffffffffffffffffffffffffffffffff82169050919050565b6000611d8882611d5d565b9050919050565b611d9881611d7d565b8114611da357600080fd5b50565b600081359050611db581611d8f565b92915050565b6000819050919050565b611dce81611dbb565b8114611dd957600080fd5b50565b600081359050611deb81611dc5565b92915050565b60008060408385031215611e0857611e07611d53565b5b6000611e1685828601611da6565b9250506020611e2785828601611ddc565b9150509250929050565b611e3a81611dbb565b82525050565b6000602082019050611e556000830184611e31565b92915050565b60007fffffffff0000000000000000000000000000000000000000000000000000000082169050919050565b611e9081611e5b565b8114611e9b57600080fd5b50565b600081359050611ead81611e87565b92915050565b600060208284031215611ec957611ec8611d53565b5b6000611ed784828501611e9e565b91505092915050565b60008115159050919050565b611ef581611ee0565b82525050565b6000602082019050611f106000830184611eec565b92915050565b600060208284031215611f2c57611f2b611d53565b5b6000611f3a84828501611ddc565b91505092915050565b600081519050919050565b600082825260208201905092915050565b60005b83811015611f7d578082015181840152602081019050611f62565b60008484015250505050565b6000601f19601f8301169050919050565b6000611fa582611f43565b611faf8185611f4e565b9350611fbf818560208601611f5f565b611fc881611f89565b840191505092915050565b60006020820190508181036000830152611fed8184611f9a565b905092915050565b600080fd5b7f4e487b7100000000000000000000000000000000000000000000000000000000600052604160045260246000fd5b61203282611f89565b810181811067ffffffffffffffff8211171561205157612050611ffa565b5b80604052505050565b6000612064611d49565b90506120708282612029565b919050565b600067ffffffffffffffff8211156120905761208f611ffa565b5b602082029050602081019050919050565b600080fd5b60006120b96120b484612075565b61205a565b905080838252602082019050602084028301858111156120dc576120db6120a1565b5b835b8181101561210557806120f18882611ddc565b8452602084019350506020810190506120de565b5050509392505050565b600082601f83011261212457612123611ff5565b5b81356121348482602086016120a6565b91505092915050565b600080fd5b600067ffffffffffffffff82111561215d5761215c611ffa565b5b61216682611f89565b9050602081019050919050565b82818337600083830152505050565b600061219561219084612142565b61205a565b9050828152602081018484840111156121b1576121b061213d565b5b6121bc848285612173565b509392505050565b600082601f8301126121d9576121d8611ff5565b5b81356121e9848260208601612182565b91505092915050565b600080600080600060a0868803121561220e5761220d611d53565b5b600061221c88828901611da6565b955050602061222d88828901611da6565b945050604086013567ffffffffffffffff81111561224e5761224d611d58565b5b61225a8882890161210f565b935050606086013567ffffffffffffffff81111561227b5761227a611d58565b5b6122878882890161210f565b925050608086013567ffffffffffffffff8111156122a8576122a7611d58565b5b6122b4888289016121c4565b9150509295509295909350565b600067ffffffffffffffff8211156122dc576122db611ffa565b5b602082029050602081019050919050565b60006123006122fb846122c1565b61205a565b90508083825260208201905060208402830185811115612323576123226120a1565b5b835b8181101561234c57806123388882611da6565b845260208401935050602081019050612325565b5050509392505050565b600082601f83011261236b5761236a611ff5565b5b813561237b8482602086016122ed565b91505092915050565b6000806040838503121561239b5761239a611d53565b5b600083013567ffffffffffffffff8111156123b9576123b8611d58565b5b6123c585828601612356565b925050602083013567ffffffffffffffff8111156123e6576123e5611d58565b5b6123f28582860161210f565b9150509250929050565b600081519050919050565b600082825260208201905092915050565b6000819050602082019050919050565b61243181611dbb565b82525050565b60006124438383612428565b60208301905092915050565b6000602082019050919050565b6000612467826123fc565b6124718185612407565b935061247c83612418565b8060005b838110156124ad5781516124948882612437565b975061249f8361244f565b925050600181019050612480565b5085935050505092915050565b600060208201905081810360008301526124d4818461245c565b905092915050565b600080604083850312156124f3576124f2611d53565b5b600061250185828601611ddc565b925050602061251285828601611ddc565b9150509250929050565b61252581611ee0565b811461253057600080fd5b50565b6000813590506125428161251c565b92915050565b6000806040838503121561255f5761255e611d53565b5b600061256d85828601611da6565b925050602061257e85828601612533565b9150509250929050565b600067ffffffffffffffff8211156125a3576125a2611ffa565b5b6125ac82611f89565b9050602081019050919050565b60006125cc6125c784612588565b61205a565b9050828152602081018484840111156125e8576125e761213d565b5b6125f3848285612173565b509392505050565b600082601f8301126126105761260f611ff5565b5b81356126208482602086016125b9565b91505092915050565b60008060006060848603121561264257612641611d53565b5b600084013567ffffffffffffffff8111156126605761265f611d58565b5b61266c868287016125fb565b935050602061267d86828701611ddc565b925050604061268e86828701611ddc565b9150509250925092565b600080604083850312156126af576126ae611d53565b5b60006126bd85828601611da6565b92505060206126ce85828601611da6565b9150509250929050565b6000806000606084860312156126f1576126f0611d53565b5b60006126ff86828701611ddc565b935050602061271086828701611ddc565b925050604061272186828701611ddc565b9150509250925092565b600080600080600060a0868803121561274757612746611d53565b5b600061275588828901611da6565b955050602061276688828901611da6565b945050604061277788828901611ddc565b935050606061278888828901611ddc565b925050608086013567ffffffffffffffff8111156127a9576127a8611d58565b5b6127b5888289016121c4565b9150509295509295909350565b7f455243313135353a2061646472657373207a65726f206973206e6f742061207660008201527f616c6964206f776e657200000000000000000000000000000000000000000000602082015250565b600061281e602a83611f4e565b9150612829826127c2565b604082019050919050565b6000602082019050818103600083015261284d81612811565b9050919050565b7f4e487b7100000000000000000000000000000000000000000000000000000000600052602260045260246000fd5b6000600282049050600182168061289b57607f821691505b6020821081036128ae576128ad612854565b5b50919050565b7f455243313135353a2063616c6c6572206973206e6f7420746f6b656e206f776e60008201527f6572206e6f7220617070726f7665640000000000000000000000000000000000602082015250565b6000612910602f83611f4e565b915061291b826128b4565b604082019050919050565b6000602082019050818103600083015261293f81612903565b9050919050565b7f455243313135353a206163636f756e747320616e6420696473206c656e67746860008201527f206d69736d617463680000000000000000000000000000000000000000000000602082015250565b60006129a2602983611f4e565b91506129ad82612946565b604082019050919050565b600060208201905081810360008301526129d181612995565b9050919050565b7f4e487b7100000000000000000000000000000000000000000000000000000000600052603260045260246000fd5b7f4e487b7100000000000000000000000000000000000000000000000000000000600052601160045260246000fd5b6000612a4182611dbb565b91507fffffffffffffffffffffffffffffffffffffffffffffffffffffffffffffffff8203612a7357612a72612a07565b5b600182019050919050565b7f506c65617365207375626d6974207468652061736b696e672070726963650000600082015250565b6000612ab4601e83611f4e565b9150612abf82612a7e565b602082019050919050565b60006020820190508181036000830152612ae381612aa7565b9050919050565b7f4f6e6c79206974656d206f776e65722063616e20726573656c6c000000000000600082015250565b6000612b20601a83611f4e565b9150612b2b82612aea565b602082019050919050565b60006020820190508181036000830152612b4f81612b13565b9050919050565b7f496e636f7272656374206c697374696e67207072696365000000000000000000600082015250565b6000612b8c601783611f4e565b9150612b9782612b56565b602082019050919050565b60006020820190508181036000830152612bbb81612b7f565b9050919050565b7f455243313135353a2069647320616e6420616d6f756e7473206c656e6774682060008201527f6d69736d61746368000000000000000000000000000000000000000000000000602082015250565b6000612c1e602883611f4e565b9150612c2982612bc2565b604082019050919050565b60006020820190508181036000830152612c4d81612c11565b9050919050565b7f455243313135353a207472616e7366657220746f20746865207a65726f20616460008201527f6472657373000000000000000000000000000000000000000000000000000000602082015250565b6000612cb0602583611f4e565b9150612cbb82612c54565b604082019050919050565b60006020820190508181036000830152612cdf81612ca3565b9050919050565b7f455243313135353a20696e73756666696369656e742062616c616e636520666f60008201527f72207472616e7366657200000000000000000000000000000000000000000000602082015250565b6000612d42602a83611f4e565b9150612d4d82612ce6565b604082019050919050565b60006020820190508181036000830152612d7181612d35565b9050919050565b6000612d8382611dbb565b9150612d8e83611dbb565b9250828201905080821115612da657612da5612a07565b5b92915050565b60006040820190508181036000830152612dc6818561245c565b90508181036020830152612dda818461245c565b90509392505050565b6000604082019050612df86000830185611e31565b612e056020830184611e31565b9392505050565b7f455243313135353a2073657474696e6720617070726f76616c2073746174757360008201527f20666f722073656c660000000000000000000000000000000000000000000000602082015250565b6000612e68602983611f4e565b9150612e7382612e0c565b604082019050919050565b60006020820190508181036000830152612e9781612e5b565b9050919050565b7f455243313135353a206d696e7420746f20746865207a65726f2061646472657360008201527f7300000000000000000000000000000000000000000000000000000000000000602082015250565b6000612efa602183611f4e565b9150612f0582612e9e565b604082019050919050565b60006020820190508181036000830152612f2981612eed565b9050919050565b60008190508160005260206000209050919050565b60006020601f8301049050919050565b600082821b905092915050565b600060088302612f927fffffffffffffffffffffffffffffffffffffffffffffffffffffffffffffffff82612f55565b612f9c8683612f55565b95508019841693508086168417925050509392505050565b6000819050919050565b6000612fd9612fd4612fcf84611dbb565b612fb4565b611dbb565b9050919050565b6000819050919050565b612ff383612fbe565b613007612fff82612fe0565b848454612f62565b825550505050565b600090565b61301c61300f565b613027818484612fea565b505050565b5b8181101561304b57613040600082613014565b60018101905061302d565b5050565b601f8211156130905761306181612f30565b61306a84612f45565b81016020851015613079578190505b61308d61308585612f45565b83018261302c565b50505b505050565b600082821c905092915050565b60006130b360001984600802613095565b1980831691505092915050565b60006130cc83836130a2565b9150826002028217905092915050565b6130e582611f43565b67ffffffffffffffff8111156130fe576130fd611ffa565b5b6131088254612883565b61311382828561304f565b600060209050601f8311600181146131465760008415613134578287015190505b61313e85826130c0565b8655506131a6565b601f19841661315486612f30565b60005b8281101561317c57848901518255600182019150602085019450602081019050613157565b868310156131995784890151613195601f8916826130a2565b8355505b6001600288020188555050505b505050505050565b7f5072696365206d757374206265206174206c6561737420312077656900000000600082015250565b60006131e4601c83611f4e565b91506131ef826131ae565b602082019050919050565b60006020820190508181036000830152613213816131d7565b9050919050565b7f5072696365206d75737420626520657175616c20746f206c697374696e67207060008201527f7269636500000000000000000000000000000000000000000000000000000000602082015250565b6000613276602483611f4e565b91506132818261321a565b604082019050919050565b600060208201905081810360008301526132a581613269565b9050919050565b6132b581611d7d565b82525050565b600060a0820190506132d060008301886132ac565b6132dd60208301876132ac565b6132ea6040830186611e31565b6132f76060830185611eec565b6133046080830184611e31565b9695505050505050565b7f436f756e7465723a2064656372656d656e74206f766572666c6f770000000000600082015250565b6000613344601b83611f4e565b915061334f8261330e565b602082019050919050565b6000602082019050818103600083015261337381613337565b9050919050565b600081519050919050565b600082825260208201905092915050565b60006133a18261337a565b6133ab8185613385565b93506133bb818560208601611f5f565b6133c481611f89565b840191505092915050565b600060a0820190506133e460008301886132ac565b6133f160208301876132ac565b8181036040830152613403818661245c565b90508181036060830152613417818561245c565b9050818103608083015261342b8184613396565b90509695505050505050565b60008151905061344681611e87565b92915050565b60006020828403121561346257613461611d53565b5b600061347084828501613437565b91505092915050565b60008160e01c9050919050565b600060033d11156134a55760046000803e6134a2600051613479565b90505b90565b600060443d10613535576134ba611d49565b60043d036004823e80513d602482011167ffffffffffffffff821117156134e2575050613535565b808201805167ffffffffffffffff8111156135005750505050613535565b80602083010160043d03850181111561351d575050505050613535565b61352c82602001850186612029565b82955050505050505b90565b7f455243313135353a207472616e7366657220746f206e6f6e204552433131353560008201527f526563656976657220696d706c656d656e746572000000000000000000000000602082015250565b6000613594603483611f4e565b915061359f82613538565b604082019050919050565b600060208201905081810360008301526135c381613587565b9050919050565b7f455243313135353a204552433131353552656365697665722072656a6563746560008201527f6420746f6b656e73000000000000000000000000000000000000000000000000602082015250565b6000613626602883611f4e565b9150613631826135ca565b604082019050919050565b6000602082019050818103600083015261365581613619565b9050919050565b600060a08201905061367160008301886132ac565b61367e60208301876132ac565b61368b6040830186611e31565b6136986060830185611e31565b81810360808301526136aa8184613396565b9050969550505050505056fea264697066735822122035a7ae32c454ef3b04b915a6cd28ecf93ba6a1634749975a918fdbd814af5bdc64736f6c6343000811003368747470733a2f2f796f75726170692e636f6d2f6170692f6974656d2f7b69647d2e6a736f6e",
  "linkReferences": {},
  "deployedLinkReferences": {}
}